{"abi":[{"type":"function","name":"addComment","inputs":[{"name":"_postId","type":"uint256","internalType":"uint256"},{"name":"_content","type":"string","internalType":"string"}],"outputs":[],"stateMutability":"nonpayable"},{"type":"function","name":"commentCount","inputs":[],"outputs":[{"name":"","type":"uint256","internalType":"uint256"}],"stateMutability":"view"},{"type":"function","name":"comments","inputs":[{"name":"","type":"uint256","internalType":"uint256"},{"name":"","type":"uint256","internalType":"uint256"}],"outputs":[{"name":"id","type":"uint256","internalType":"uint256"},{"name":"postId","type":"uint256","internalType":"uint256"},{"name":"content","type":"string","internalType":"string"},{"name":"author","type":"address","internalType":"address"}],"stateMutability":"view"},{"type":"function","name":"createPost","inputs":[{"name":"_content","type":"string","internalType":"string"}],"outputs":[],"stateMutability":"nonpayable"},{"type":"function","name":"getCommentCount","inputs":[{"name":"_postId","type":"uint256","internalType":"uint256"}],"outputs":[{"name":"","type":"uint256","internalType":"uint256"}],"stateMutability":"view"},{"type":"function","name":"likePost","inputs":[{"name":"_id","type":"uint256","internalType":"uint256"}],"outputs":[],"stateMutability":"nonpayable"},{"type":"function","name":"liked","inputs":[{"name":"","type":"uint256","internalType":"uint256"},{"name":"","type":"address","internalType":"address"}],"outputs":[{"name":"","type":"bool","internalType":"bool"}],"stateMutability":"view"},{"type":"function","name":"name","inputs":[],"outputs":[{"name":"","type":"string","internalType":"string"}],"stateMutability":"view"},{"type":"function","name":"postCount","inputs":[],"outputs":[{"name":"","type":"uint256","internalType":"uint256"}],"stateMutability":"view"},{"type":"function","name":"posts","inputs":[{"name":"","type":"uint256","internalType":"uint256"}],"outputs":[{"name":"id","type":"uint256","internalType":"uint256"},{"name":"content","type":"string","internalType":"string"},{"name":"tipAmount","type":"uint256","internalType":"uint256"},{"name":"author","type":"address","internalType":"address payable"},{"name":"likeCount","type":"uint256","internalType":"uint256"}],"stateMutability":"view"},{"type":"function","name":"tipPost","inputs":[{"name":"_id","type":"uint256","internalType":"uint256"}],"outputs":[],"stateMutability":"payable"},{"type":"event","name":"CommentAdded","inputs":[{"name":"id","type":"uint256","indexed":false,"internalType":"uint256"},{"name":"postId","type":"uint256","indexed":false,"internalType":"uint256"},{"name":"content","type":"string","indexed":false,"internalType":"string"},{"name":"author","type":"address","indexed":false,"internalType":"address"}],"anonymous":false},{"type":"event","name":"PostCreated","inputs":[{"name":"id","type":"uint256","indexed":false,"internalType":"uint256"},{"name":"content","type":"string","indexed":false,"internalType":"string"},{"name":"tipAmount","type":"uint256","indexed":false,"internalType":"uint256"},{"name":"author","type":"address","indexed":false,"internalType":"address"}],"anonymous":false},{"type":"event","name":"PostLiked","inputs":[{"name":"id","type":"uint256","indexed":false,"internalType":"uint256"},{"name":"user","type":"address","indexed":false,"internalType":"address"},{"name":"likeCount","type":"uint256","indexed":false,"internalType":"uint256"}],"anonymous":false},{"type":"event","name":"PostTipped","inputs":[{"name":"id","type":"uint256","indexed":false,"internalType":"uint256"},{"name":"tipAmount","type":"uint256","indexed":false,"internalType":"uint256"},{"name":"author","type":"address","indexed":false,"internalType":"address"}],"anonymous":false}],"bytecode":{"object":"0x60806040526040518060400160405280601281526020017f536f6369616c204e6574776f726b20594a5300000000000000000000000000008152505f9081610047919061029e565b505f6001555f60025534801561005b575f5ffd5b5061036d565b5f81519050919050565b7f4e487b71000000000000000000000000000000000000000000000000000000005f52604160045260245ffd5b7f4e487b71000000000000000000000000000000000000000000000000000000005f52602260045260245ffd5b5f60028204905060018216806100dc57607f821691505b6020821081036100ef576100ee610098565b5b50919050565b5f819050815f5260205f209050919050565b5f6020601f8301049050919050565b5f82821b905092915050565b5f600883026101517fffffffffffffffffffffffffffffffffffffffffffffffffffffffffffffffff82610116565b61015b8683610116565b95508019841693508086168417925050509392505050565b5f819050919050565b5f819050919050565b5f61019f61019a61019584610173565b61017c565b610173565b9050919050565b5f819050919050565b6101b883610185565b6101cc6101c4826101a6565b848454610122565b825550505050565b5f5f905090565b6101e36101d4565b6101ee8184846101af565b505050565b5b81811015610211576102065f826101db565b6001810190506101f4565b5050565b601f82111561025657610227816100f5565b61023084610107565b8101602085101561023f578190505b61025361024b85610107565b8301826101f3565b50505b505050565b5f82821c905092915050565b5f6102765f198460080261025b565b1980831691505092915050565b5f61028e8383610267565b9150826002028217905092915050565b6102a782610061565b67ffffffffffffffff8111156102c0576102bf61006b565b5b6102ca82546100c5565b6102d5828285610215565b5f60209050601f831160018114610306575f84156102f4578287015190505b6102fe8582610283565b865550610365565b601f198416610314866100f5565b5f5b8281101561033b57848901518255600182019150602085019450602081019050610316565b868310156103585784890151610354601f891682610267565b8355505b6001600288020188555050505b505050505050565b6118528061037a5f395ff3fe60806040526004361061009b575f3560e01c806345ff20de1161006357806345ff20de146101ab578063725009d3146101d557806374d3c1f8146101fd578063aa7e568314610219578063c7303c6114610241578063fc6c776f146102695761009b565b806302c427871461009f57806306fdde03146100db5780630b1e7f83146101055780630d4bfb4f1461014557806317906c2e14610181575b5f5ffd5b3480156100aa575f5ffd5b506100c560048036038101906100c09190610c89565b6102a8565b6040516100d29190610ce1565b60405180910390f35b3480156100e6575f5ffd5b506100ef6102d2565b6040516100fc9190610d6a565b60405180910390f35b348015610110575f5ffd5b5061012b60048036038101906101269190610d8a565b61035d565b60405161013c959493929190610de4565b60405180910390f35b348015610150575f5ffd5b5061016b60048036038101906101669190610d8a565b610434565b6040516101789190610e3c565b60405180910390f35b34801561018c575f5ffd5b50610195610451565b6040516101a29190610e3c565b60405180910390f35b3480156101b6575f5ffd5b506101bf610457565b6040516101cc9190610e3c565b60405180910390f35b3480156101e0575f5ffd5b506101fb60048036038101906101f69190610d8a565b61045d565b005b61021760048036038101906102129190610d8a565b61061a565b005b348015610224575f5ffd5b5061023f600480360381019061023a9190610f81565b6107ca565b005b34801561024c575f5ffd5b5061026760048036038101906102629190610fdb565b610997565b005b348015610274575f5ffd5b5061028f600480360381019061028a9190611022565b610b00565b60405161029f949392919061106f565b60405180910390f35b6005602052815f5260405f20602052805f5260405f205f915091509054906101000a900460ff1681565b5f80546102de906110e6565b80601f016020809104026020016040519081016040528092919081815260200182805461030a906110e6565b80156103555780601f1061032c57610100808354040283529160200191610355565b820191905f5260205f20905b81548152906001019060200180831161033857829003601f168201915b505050505081565b6003602052805f5260405f205f91509050805f015490806001018054610382906110e6565b80601f01602080910402602001604051908101604052809291908181526020018280546103ae906110e6565b80156103f95780601f106103d0576101008083540402835291602001916103f9565b820191905f5260205f20905b8154815290600101906020018083116103dc57829003601f168201915b505050505090806002015490806003015f9054906101000a900473ffffffffffffffffffffffffffffffffffffffff16908060040154905085565b5f60045f8381526020019081526020015f20805490509050919050565b60015481565b60025481565b5f8111801561046e57506001548111155b6104ad576040517f08c379a00000000000000000000000000000000000000000000000000000000081526004016104a490611160565b60405180910390fd5b60055f8281526020019081526020015f205f3373ffffffffffffffffffffffffffffffffffffffff1673ffffffffffffffffffffffffffffffffffffffff1681526020019081526020015f205f9054906101000a900460ff1615610546576040517f08c379a000000000000000000000000000000000000000000000000000000000815260040161053d906111c8565b60405180910390fd5b5f60035f8381526020019081526020015f209050806004015f81548092919061056e90611213565b9190505550600160055f8481526020019081526020015f205f3373ffffffffffffffffffffffffffffffffffffffff1673ffffffffffffffffffffffffffffffffffffffff1681526020019081526020015f205f6101000a81548160ff0219169083151502179055507fdfb8e3561bacb6caea7f0960d425956921b9147a631b6e857325c39911ee7e3b8233836004015460405161060e9392919061125a565b60405180910390a15050565b5f8111801561062b57506001548111155b61066a576040517f08c379a000000000000000000000000000000000000000000000000000000000815260040161066190611160565b60405180910390fd5b5f60035f8381526020019081526020015f2090505f816003015f9054906101000a900473ffffffffffffffffffffffffffffffffffffffff1673ffffffffffffffffffffffffffffffffffffffff16346040516106c6906112bc565b5f6040518083038185875af1925050503d805f8114610700576040519150601f19603f3d011682016040523d82523d5f602084013e610705565b606091505b5050905080610749576040517f08c379a00000000000000000000000000000000000000000000000000000000081526004016107409061131a565b60405180910390fd5b34826002015f82825461075c9190611338565b925050819055507f857a474f7d18ba7614a11cc88bce5fd9cf05678441e1cb7c7eac53fecf3a8abd838360020154846003015f9054906101000a900473ffffffffffffffffffffffffffffffffffffffff166040516107bd939291906113c6565b60405180910390a1505050565b5f821180156107db57506001548211155b61081a576040517f08c379a000000000000000000000000000000000000000000000000000000000815260040161081190611445565b60405180910390fd5b5f81511161085d576040517f08c379a0000000000000000000000000000000000000000000000000000000008152600401610854906114ad565b60405180910390fd5b60025f81548092919061086f90611213565b919050555060045f8381526020019081526020015f20604051806080016040528060025481526020018481526020018381526020013373ffffffffffffffffffffffffffffffffffffffff16815250908060018154018082558091505060019003905f5260205f2090600402015f909190919091505f820151815f015560208201518160010155604082015181600201908161090b9190611662565b506060820151816003015f6101000a81548173ffffffffffffffffffffffffffffffffffffffff021916908373ffffffffffffffffffffffffffffffffffffffff16021790555050507f7c5fba5cf458ab2696d94889b7c2a55c2b13037acee8e2b1be6c67d90e69814360025483833360405161098b949392919061106f565b60405180910390a15050565b5f8151116109da576040517f08c379a00000000000000000000000000000000000000000000000000000000081526004016109d19061177b565b60405180910390fd5b60015f8154809291906109ec90611213565b91905055506040518060a0016040528060015481526020018281526020015f81526020013373ffffffffffffffffffffffffffffffffffffffff1681526020015f81525060035f60015481526020019081526020015f205f820151815f01556020820151816001019081610a609190611662565b50604082015181600201556060820151816003015f6101000a81548173ffffffffffffffffffffffffffffffffffffffff021916908373ffffffffffffffffffffffffffffffffffffffff160217905550608082015181600401559050507fc66336337a24e513f909b3b25119854dba8385d51307dbc7d31d1b2805e19c7e600154825f33604051610af594939291906117d2565b60405180910390a150565b6004602052815f5260405f208181548110610b19575f80fd5b905f5260205f2090600402015f9150915050805f015490806001015490806002018054610b45906110e6565b80601f0160208091040260200160405190810160405280929190818152602001828054610b71906110e6565b8015610bbc5780601f10610b9357610100808354040283529160200191610bbc565b820191905f5260205f20905b815481529060010190602001808311610b9f57829003601f168201915b505050505090806003015f9054906101000a900473ffffffffffffffffffffffffffffffffffffffff16905084565b5f604051905090565b5f5ffd5b5f5ffd5b5f819050919050565b610c0e81610bfc565b8114610c18575f5ffd5b50565b5f81359050610c2981610c05565b92915050565b5f73ffffffffffffffffffffffffffffffffffffffff82169050919050565b5f610c5882610c2f565b9050919050565b610c6881610c4e565b8114610c72575f5ffd5b50565b5f81359050610c8381610c5f565b92915050565b5f5f60408385031215610c9f57610c9e610bf4565b5b5f610cac85828601610c1b565b9250506020610cbd85828601610c75565b9150509250929050565b5f8115159050919050565b610cdb81610cc7565b82525050565b5f602082019050610cf45f830184610cd2565b92915050565b5f81519050919050565b5f82825260208201905092915050565b8281835e5f83830152505050565b5f601f19601f8301169050919050565b5f610d3c82610cfa565b610d468185610d04565b9350610d56818560208601610d14565b610d5f81610d22565b840191505092915050565b5f6020820190508181035f830152610d828184610d32565b905092915050565b5f60208284031215610d9f57610d9e610bf4565b5b5f610dac84828501610c1b565b91505092915050565b610dbe81610bfc565b82525050565b5f610dce82610c2f565b9050919050565b610dde81610dc4565b82525050565b5f60a082019050610df75f830188610db5565b8181036020830152610e098187610d32565b9050610e186040830186610db5565b610e256060830185610dd5565b610e326080830184610db5565b9695505050505050565b5f602082019050610e4f5f830184610db5565b92915050565b5f5ffd5b5f5ffd5b7f4e487b71000000000000000000000000000000000000000000000000000000005f52604160045260245ffd5b610e9382610d22565b810181811067ffffffffffffffff82111715610eb257610eb1610e5d565b5b80604052505050565b5f610ec4610beb565b9050610ed08282610e8a565b919050565b5f67ffffffffffffffff821115610eef57610eee610e5d565b5b610ef882610d22565b9050602081019050919050565b828183375f83830152505050565b5f610f25610f2084610ed5565b610ebb565b905082815260208101848484011115610f4157610f40610e59565b5b610f4c848285610f05565b509392505050565b5f82601f830112610f6857610f67610e55565b5b8135610f78848260208601610f13565b91505092915050565b5f5f60408385031215610f9757610f96610bf4565b5b5f610fa485828601610c1b565b925050602083013567ffffffffffffffff811115610fc557610fc4610bf8565b5b610fd185828601610f54565b9150509250929050565b5f60208284031215610ff057610fef610bf4565b5b5f82013567ffffffffffffffff81111561100d5761100c610bf8565b5b61101984828501610f54565b91505092915050565b5f5f6040838503121561103857611037610bf4565b5b5f61104585828601610c1b565b925050602061105685828601610c1b565b9150509250929050565b61106981610c4e565b82525050565b5f6080820190506110825f830187610db5565b61108f6020830186610db5565b81810360408301526110a18185610d32565b90506110b06060830184611060565b95945050505050565b7f4e487b71000000000000000000000000000000000000000000000000000000005f52602260045260245ffd5b5f60028204905060018216806110fd57607f821691505b6020821081036111105761110f6110b9565b5b50919050565b7f496e76616c6964204944000000000000000000000000000000000000000000005f82015250565b5f61114a600a83610d04565b915061115582611116565b602082019050919050565b5f6020820190508181035f8301526111778161113e565b9050919050565b7f416c7265616479206c696b6564000000000000000000000000000000000000005f82015250565b5f6111b2600d83610d04565b91506111bd8261117e565b602082019050919050565b5f6020820190508181035f8301526111df816111a6565b9050919050565b7f4e487b71000000000000000000000000000000000000000000000000000000005f52601160045260245ffd5b5f61121d82610bfc565b91507fffffffffffffffffffffffffffffffffffffffffffffffffffffffffffffffff820361124f5761124e6111e6565b5b600182019050919050565b5f60608201905061126d5f830186610db5565b61127a6020830185611060565b6112876040830184610db5565b949350505050565b5f81905092915050565b50565b5f6112a75f8361128f565b91506112b282611299565b5f82019050919050565b5f6112c68261129c565b9150819050919050565b7f5472616e73666572206661696c656400000000000000000000000000000000005f82015250565b5f611304600f83610d04565b915061130f826112d0565b602082019050919050565b5f6020820190508181035f830152611331816112f8565b9050919050565b5f61134282610bfc565b915061134d83610bfc565b9250828201905080821115611365576113646111e6565b5b92915050565b5f819050919050565b5f61138e61138961138484610c2f565b61136b565b610c2f565b9050919050565b5f61139f82611374565b9050919050565b5f6113b082611395565b9050919050565b6113c0816113a6565b82525050565b5f6060820190506113d95f830186610db5565b6113e66020830185610db5565b6113f360408301846113b7565b949350505050565b7f496e76616c696420706f737400000000000000000000000000000000000000005f82015250565b5f61142f600c83610d04565b915061143a826113fb565b602082019050919050565b5f6020820190508181035f83015261145c81611423565b9050919050565b7f456d70747920636f6d6d656e74000000000000000000000000000000000000005f82015250565b5f611497600d83610d04565b91506114a282611463565b602082019050919050565b5f6020820190508181035f8301526114c48161148b565b9050919050565b5f819050815f5260205f209050919050565b5f6020601f8301049050919050565b5f82821b905092915050565b5f600883026115277fffffffffffffffffffffffffffffffffffffffffffffffffffffffffffffffff826114ec565b61153186836114ec565b95508019841693508086168417925050509392505050565b5f61156361155e61155984610bfc565b61136b565b610bfc565b9050919050565b5f819050919050565b61157c83611549565b6115906115888261156a565b8484546114f8565b825550505050565b5f5f905090565b6115a7611598565b6115b2818484611573565b505050565b5b818110156115d5576115ca5f8261159f565b6001810190506115b8565b5050565b601f82111561161a576115eb816114cb565b6115f4846114dd565b81016020851015611603578190505b61161761160f856114dd565b8301826115b7565b50505b505050565b5f82821c905092915050565b5f61163a5f198460080261161f565b1980831691505092915050565b5f611652838361162b565b9150826002028217905092915050565b61166b82610cfa565b67ffffffffffffffff81111561168457611683610e5d565b5b61168e82546110e6565b6116998282856115d9565b5f60209050601f8311600181146116ca575f84156116b8578287015190505b6116c28582611647565b865550611729565b601f1984166116d8866114cb565b5f5b828110156116ff578489015182556001820191506020850194506020810190506116da565b8683101561171c5784890151611718601f89168261162b565b8355505b6001600288020188555050505b505050505050565b7f456d70747920636f6e74656e74000000000000000000000000000000000000005f82015250565b5f611765600d83610d04565b915061177082611731565b602082019050919050565b5f6020820190508181035f83015261179281611759565b9050919050565b5f819050919050565b5f6117bc6117b76117b284611799565b61136b565b610bfc565b9050919050565b6117cc816117a2565b82525050565b5f6080820190506117e55f830187610db5565b81810360208301526117f78186610d32565b905061180660408301856117c3565b6118136060830184611060565b9594505050505056fea264697066735822122044a9c0dd52e1a1677bb280bd164f93682c99b3214939a9bc3fa938fad287777264736f6c634300081e0033","linkReferences":{}},"methodIdentifiers":{"addComment(uint256,string)":"aa7e5683","commentCount()":"45ff20de","comments(uint256,uint256)":"fc6c776f","createPost(string)":"c7303c61","getCommentCount(uint256)":"0d4bfb4f","likePost(uint256)":"725009d3","liked(uint256,address)":"02c42787","name()":"06fdde03","postCount()":"17906c2e","posts(uint256)":"0b1e7f83","tipPost(uint256)":"74d3c1f8"},"id":16}