{"abi":[{"type":"function","name":"addComment","inputs":[{"name":"_postId","type":"uint256","internalType":"uint256"},{"name":"_content","type":"string","internalType":"string"}],"outputs":[],"stateMutability":"nonpayable"},{"type":"function","name":"commentCount","inputs":[],"outputs":[{"name":"","type":"uint256","internalType":"uint256"}],"stateMutability":"view"},{"type":"function","name":"commentLiked","inputs":[{"name":"","type":"uint256","internalType":"uint256"},{"name":"","type":"address","internalType":"address"}],"outputs":[{"name":"","type":"bool","internalType":"bool"}],"stateMutability":"view"},{"type":"function","name":"comments","inputs":[{"name":"","type":"uint256","internalType":"uint256"},{"name":"","type":"uint256","internalType":"uint256"}],"outputs":[{"name":"id","type":"uint256","internalType":"uint256"},{"name":"postId","type":"uint256","internalType":"uint256"},{"name":"content","type":"string","internalType":"string"},{"name":"author","type":"address","internalType":"address"},{"name":"timestamp","type":"uint256","internalType":"uint256"}],"stateMutability":"view"},{"type":"function","name":"createPost","inputs":[{"name":"_content","type":"string","internalType":"string"},{"name":"_imageHash","type":"string","internalType":"string"}],"outputs":[],"stateMutability":"nonpayable"},{"type":"function","name":"getCommentCount","inputs":[{"name":"_postId","type":"uint256","internalType":"uint256"}],"outputs":[{"name":"","type":"uint256","internalType":"uint256"}],"stateMutability":"view"},{"type":"function","name":"getComments","inputs":[{"name":"_postId","type":"uint256","internalType":"uint256"}],"outputs":[{"name":"","type":"tuple[]","internalType":"struct SocialNetwork.Comment[]","components":[{"name":"id","type":"uint256","internalType":"uint256"},{"name":"postId","type":"uint256","internalType":"uint256"},{"name":"content","type":"string","internalType":"string"},{"name":"author","type":"address","internalType":"address"},{"name":"timestamp","type":"uint256","internalType":"uint256"}]}],"stateMutability":"view"},{"type":"function","name":"getPostImage","inputs":[{"name":"_postId","type":"uint256","internalType":"uint256"}],"outputs":[{"name":"","type":"string","internalType":"string"}],"stateMutability":"view"},{"type":"function","name":"likePost","inputs":[{"name":"_id","type":"uint256","internalType":"uint256"}],"outputs":[],"stateMutability":"nonpayable"},{"type":"function","name":"liked","inputs":[{"name":"","type":"uint256","internalType":"uint256"},{"name":"","type":"address","internalType":"address"}],"outputs":[{"name":"","type":"bool","internalType":"bool"}],"stateMutability":"view"},{"type":"function","name":"name","inputs":[],"outputs":[{"name":"","type":"string","internalType":"string"}],"stateMutability":"view"},{"type":"function","name":"postCount","inputs":[],"outputs":[{"name":"","type":"uint256","internalType":"uint256"}],"stateMutability":"view"},{"type":"function","name":"posts","inputs":[{"name":"","type":"uint256","internalType":"uint256"}],"outputs":[{"name":"id","type":"uint256","internalType":"uint256"},{"name":"content","type":"string","internalType":"string"},{"name":"imageHash","type":"string","internalType":"string"},{"name":"tipAmount","type":"uint256","internalType":"uint256"},{"name":"author","type":"address","internalType":"address payable"},{"name":"likeCount","type":"uint256","internalType":"uint256"}],"stateMutability":"view"},{"type":"function","name":"tipPost","inputs":[{"name":"_id","type":"uint256","internalType":"uint256"}],"outputs":[],"stateMutability":"payable"},{"type":"event","name":"CommentAdded","inputs":[{"name":"id","type":"uint256","indexed":false,"internalType":"uint256"},{"name":"postId","type":"uint256","indexed":false,"internalType":"uint256"},{"name":"content","type":"string","indexed":false,"internalType":"string"},{"name":"author","type":"address","indexed":false,"internalType":"address"},{"name":"timestamp","type":"uint256","indexed":false,"internalType":"uint256"}],"anonymous":false},{"type":"event","name":"PostCreated","inputs":[{"name":"id","type":"uint256","indexed":false,"internalType":"uint256"},{"name":"content","type":"string","indexed":false,"internalType":"string"},{"name":"imageHash","type":"string","indexed":false,"internalType":"string"},{"name":"tipAmount","type":"uint256","indexed":false,"internalType":"uint256"},{"name":"author","type":"address","indexed":false,"internalType":"address"}],"anonymous":false},{"type":"event","name":"PostLiked","inputs":[{"name":"id","type":"uint256","indexed":false,"internalType":"uint256"},{"name":"user","type":"address","indexed":false,"internalType":"address"},{"name":"likeCount","type":"uint256","indexed":false,"internalType":"uint256"}],"anonymous":false},{"type":"event","name":"PostTipped","inputs":[{"name":"id","type":"uint256","indexed":false,"internalType":"uint256"},{"name":"tipAmount","type":"uint256","indexed":false,"internalType":"uint256"},{"name":"author","type":"address","indexed":false,"internalType":"address"}],"anonymous":false}],"bytecode":{"object":"0x60806040526040518060400160405280601281526020017f536f6369616c204e6574776f726b20594a5300000000000000000000000000008152505f9081610047919061029e565b505f6001555f60025534801561005b575f5ffd5b5061036d565b5f81519050919050565b7f4e487b71000000000000000000000000000000000000000000000000000000005f52604160045260245ffd5b7f4e487b71000000000000000000000000000000000000000000000000000000005f52602260045260245ffd5b5f60028204905060018216806100dc57607f821691505b6020821081036100ef576100ee610098565b5b50919050565b5f819050815f5260205f209050919050565b5f6020601f8301049050919050565b5f82821b905092915050565b5f600883026101517fffffffffffffffffffffffffffffffffffffffffffffffffffffffffffffffff82610116565b61015b8683610116565b95508019841693508086168417925050509392505050565b5f819050919050565b5f819050919050565b5f61019f61019a61019584610173565b61017c565b610173565b9050919050565b5f819050919050565b6101b883610185565b6101cc6101c4826101a6565b848454610122565b825550505050565b5f5f905090565b6101e36101d4565b6101ee8184846101af565b505050565b5b81811015610211576102065f826101db565b6001810190506101f4565b5050565b601f82111561025657610227816100f5565b61023084610107565b8101602085101561023f578190505b61025361024b85610107565b8301826101f3565b50505b505050565b5f82821c905092915050565b5f6102765f198460080261025b565b1980831691505092915050565b5f61028e8383610267565b9150826002028217905092915050565b6102a782610061565b67ffffffffffffffff8111156102c0576102bf61006b565b5b6102ca82546100c5565b6102d5828285610215565b5f60209050601f831160018114610306575f84156102f4578287015190505b6102fe8582610283565b865550610365565b601f198416610314866100f5565b5f5b8281101561033b57848901518255600182019150602085019450602081019050610316565b868310156103585784890151610354601f891682610267565b8355505b6001600288020188555050505b505050505050565b6120668061037a5f395ff3fe6080604052600436106100dc575f3560e01c806345ff20de1161007e578063725009d311610058578063725009d3146102f357806374d3c1f81461031b578063aa7e568314610337578063fc6c776f1461035f576100dc565b806345ff20de14610251578063554124e01461027b57806358a61829146102b7576100dc565b80630d4bfb4f116100ba5780630d4bfb4f1461018757806317906c2e146101c357806323edf697146101ed578063392338f514610229576100dc565b806302c42787146100e057806306fdde031461011c5780630b1e7f8314610146575b5f5ffd5b3480156100eb575f5ffd5b50610106600480360381019061010191906111b2565b61039f565b604051610113919061120a565b60405180910390f35b348015610127575f5ffd5b506101306103c9565b60405161013d9190611293565b60405180910390f35b348015610151575f5ffd5b5061016c600480360381019061016791906112b3565b610454565b60405161017e9695949392919061130d565b60405180910390f35b348015610192575f5ffd5b506101ad60048036038101906101a891906112b3565b6105b7565b6040516101ba919061137a565b60405180910390f35b3480156101ce575f5ffd5b506101d76105d4565b6040516101e4919061137a565b60405180910390f35b3480156101f8575f5ffd5b50610213600480360381019061020e91906112b3565b6105da565b6040516102209190611527565b60405180910390f35b348015610234575f5ffd5b5061024f600480360381019061024a9190611673565b610749565b005b34801561025c575f5ffd5b506102656108dc565b604051610272919061137a565b60405180910390f35b348015610286575f5ffd5b506102a1600480360381019061029c91906111b2565b6108e2565b6040516102ae919061120a565b60405180910390f35b3480156102c2575f5ffd5b506102dd60048036038101906102d891906112b3565b61090c565b6040516102ea9190611293565b60405180910390f35b3480156102fe575f5ffd5b50610319600480360381019061031491906112b3565b610a00565b005b610335600480360381019061033091906112b3565b610bbd565b005b348015610342575f5ffd5b5061035d600480360381019061035891906116e9565b610dfe565b005b34801561036a575f5ffd5b5061038560048036038101906103809190611743565b611023565b604051610396959493929190611790565b60405180910390f35b6005602052815f5260405f20602052805f5260405f205f915091509054906101000a900460ff1681565b5f80546103d590611815565b80601f016020809104026020016040519081016040528092919081815260200182805461040190611815565b801561044c5780601f106104235761010080835404028352916020019161044c565b820191905f5260205f20905b81548152906001019060200180831161042f57829003601f168201915b505050505081565b6003602052805f5260405f205f91509050805f01549080600101805461047990611815565b80601f01602080910402602001604051908101604052809291908181526020018280546104a590611815565b80156104f05780601f106104c7576101008083540402835291602001916104f0565b820191905f5260205f20905b8154815290600101906020018083116104d357829003601f168201915b50505050509080600201805461050590611815565b80601f016020809104026020016040519081016040528092919081815260200182805461053190611815565b801561057c5780601f106105535761010080835404028352916020019161057c565b820191905f5260205f20905b81548152906001019060200180831161055f57829003601f168201915b505050505090806003015490806004015f9054906101000a900473ffffffffffffffffffffffffffffffffffffffff16908060050154905086565b5f60045f8381526020019081526020015f20805490509050919050565b60015481565b606060045f8381526020019081526020015f20805480602002602001604051908101604052809291908181526020015f905b8282101561073e578382905f5260205f2090600502016040518060a00160405290815f82015481526020016001820154815260200160028201805461065090611815565b80601f016020809104026020016040519081016040528092919081815260200182805461067c90611815565b80156106c75780601f1061069e576101008083540402835291602001916106c7565b820191905f5260205f20905b8154815290600101906020018083116106aa57829003601f168201915b50505050508152602001600382015f9054906101000a900473ffffffffffffffffffffffffffffffffffffffff1673ffffffffffffffffffffffffffffffffffffffff1673ffffffffffffffffffffffffffffffffffffffff1681526020016004820154815250508152602001906001019061060c565b505050509050919050565b5f8251118061075857505f8151115b610797576040517f08c379a000000000000000000000000000000000000000000000000000000000815260040161078e9061188f565b60405180910390fd5b60015f8154809291906107a9906118da565b91905055506040518060c0016040528060015481526020018381526020018281526020015f81526020013373ffffffffffffffffffffffffffffffffffffffff1681526020015f81525060035f60015481526020019081526020015f205f820151815f015560208201518160010190816108239190611ac1565b5060408201518160020190816108399190611ac1565b50606082015181600301556080820151816004015f6101000a81548173ffffffffffffffffffffffffffffffffffffffff021916908373ffffffffffffffffffffffffffffffffffffffff16021790555060a082015181600501559050507f0e2769bd597cd7048e25b64a846e1254d4cb84b13c4aba4ad4a891baf7a399c660015483835f336040516108d0959493929190611bc9565b60405180910390a15050565b60025481565b6006602052815f5260405f20602052805f5260405f205f915091509054906101000a900460ff1681565b60605f8211801561091f57506001548211155b61095e576040517f08c379a000000000000000000000000000000000000000000000000000000000815260040161095590611c72565b60405180910390fd5b60035f8381526020019081526020015f20600201805461097d90611815565b80601f01602080910402602001604051908101604052809291908181526020018280546109a990611815565b80156109f45780601f106109cb576101008083540402835291602001916109f4565b820191905f5260205f20905b8154815290600101906020018083116109d757829003601f168201915b50505050509050919050565b5f81118015610a1157506001548111155b610a50576040517f08c379a0000000000000000000000000000000000000000000000000000000008152600401610a4790611c72565b60405180910390fd5b60055f8281526020019081526020015f205f3373ffffffffffffffffffffffffffffffffffffffff1673ffffffffffffffffffffffffffffffffffffffff1681526020019081526020015f205f9054906101000a900460ff1615610ae9576040517f08c379a0000000000000000000000000000000000000000000000000000000008152600401610ae090611cda565b60405180910390fd5b5f60035f8381526020019081526020015f209050806005015f815480929190610b11906118da565b9190505550600160055f8481526020019081526020015f205f3373ffffffffffffffffffffffffffffffffffffffff1673ffffffffffffffffffffffffffffffffffffffff1681526020019081526020015f205f6101000a81548160ff0219169083151502179055507fdfb8e3561bacb6caea7f0960d425956921b9147a631b6e857325c39911ee7e3b82338360050154604051610bb193929190611cf8565b60405180910390a15050565b5f81118015610bce57506001548111155b610c0d576040517f08c379a0000000000000000000000000000000000000000000000000000000008152600401610c0490611c72565b60405180910390fd5b5f60035f8381526020019081526020015f2090505f73ffffffffffffffffffffffffffffffffffffffff16816004015f9054906101000a900473ffffffffffffffffffffffffffffffffffffffff1673ffffffffffffffffffffffffffffffffffffffff1603610cb2576040517f08c379a0000000000000000000000000000000000000000000000000000000008152600401610ca990611d77565b60405180910390fd5b5f816004015f9054906101000a900473ffffffffffffffffffffffffffffffffffffffff1673ffffffffffffffffffffffffffffffffffffffff1634604051610cfa90611dc2565b5f6040518083038185875af1925050503d805f8114610d34576040519150601f19603f3d011682016040523d82523d5f602084013e610d39565b606091505b5050905080610d7d576040517f08c379a0000000000000000000000000000000000000000000000000000000008152600401610d7490611e20565b60405180910390fd5b34826003015f828254610d909190611e3e565b925050819055507f857a474f7d18ba7614a11cc88bce5fd9cf05678441e1cb7c7eac53fecf3a8abd838360030154846004015f9054906101000a900473ffffffffffffffffffffffffffffffffffffffff16604051610df193929190611ec3565b60405180910390a1505050565b5f82118015610e0f57506001548211155b610e4e576040517f08c379a0000000000000000000000000000000000000000000000000000000008152600401610e4590611f42565b60405180910390fd5b5f815111610e91576040517f08c379a0000000000000000000000000000000000000000000000000000000008152600401610e8890611faa565b60405180910390fd5b6101f481511115610ed7576040517f08c379a0000000000000000000000000000000000000000000000000000000008152600401610ece90612012565b60405180910390fd5b60025f815480929190610ee9906118da565b919050555060045f8381526020019081526020015f206040518060a0016040528060025481526020018481526020018381526020013373ffffffffffffffffffffffffffffffffffffffff16815260200142815250908060018154018082558091505060019003905f5260205f2090600502015f909190919091505f820151815f0155602082015181600101556040820151816002019081610f8b9190611ac1565b506060820151816003015f6101000a81548173ffffffffffffffffffffffffffffffffffffffff021916908373ffffffffffffffffffffffffffffffffffffffff1602179055506080820151816004015550507f8d17c5eae06e04f4a2486e4d625ea8b9c564609be880bf5681c124e9f2396ed460025483833342604051611017959493929190611790565b60405180910390a15050565b6004602052815f5260405f20818154811061103c575f80fd5b905f5260205f2090600502015f9150915050805f01549080600101549080600201805461106890611815565b80601f016020809104026020016040519081016040528092919081815260200182805461109490611815565b80156110df5780601f106110b6576101008083540402835291602001916110df565b820191905f5260205f20905b8154815290600101906020018083116110c257829003601f168201915b505050505090806003015f9054906101000a900473ffffffffffffffffffffffffffffffffffffffff16908060040154905085565b5f604051905090565b5f5ffd5b5f5ffd5b5f819050919050565b61113781611125565b8114611141575f5ffd5b50565b5f813590506111528161112e565b92915050565b5f73ffffffffffffffffffffffffffffffffffffffff82169050919050565b5f61118182611158565b9050919050565b61119181611177565b811461119b575f5ffd5b50565b5f813590506111ac81611188565b92915050565b5f5f604083850312156111c8576111c761111d565b5b5f6111d585828601611144565b92505060206111e68582860161119e565b9150509250929050565b5f8115159050919050565b611204816111f0565b82525050565b5f60208201905061121d5f8301846111fb565b92915050565b5f81519050919050565b5f82825260208201905092915050565b8281835e5f83830152505050565b5f601f19601f8301169050919050565b5f61126582611223565b61126f818561122d565b935061127f81856020860161123d565b6112888161124b565b840191505092915050565b5f6020820190508181035f8301526112ab818461125b565b905092915050565b5f602082840312156112c8576112c761111d565b5b5f6112d584828501611144565b91505092915050565b6112e781611125565b82525050565b5f6112f782611158565b9050919050565b611307816112ed565b82525050565b5f60c0820190506113205f8301896112de565b8181036020830152611332818861125b565b90508181036040830152611346818761125b565b905061135560608301866112de565b61136260808301856112fe565b61136f60a08301846112de565b979650505050505050565b5f60208201905061138d5f8301846112de565b92915050565b5f81519050919050565b5f82825260208201905092915050565b5f819050602082019050919050565b6113c581611125565b82525050565b5f82825260208201905092915050565b5f6113e582611223565b6113ef81856113cb565b93506113ff81856020860161123d565b6114088161124b565b840191505092915050565b61141c81611177565b82525050565b5f60a083015f8301516114375f8601826113bc565b50602083015161144a60208601826113bc565b506040830151848203604086015261146282826113db565b91505060608301516114776060860182611413565b50608083015161148a60808601826113bc565b508091505092915050565b5f6114a08383611422565b905092915050565b5f602082019050919050565b5f6114be82611393565b6114c8818561139d565b9350836020820285016114da856113ad565b805f5b8581101561151557848403895281516114f68582611495565b9450611501836114a8565b925060208a019950506001810190506114dd565b50829750879550505050505092915050565b5f6020820190508181035f83015261153f81846114b4565b905092915050565b5f5ffd5b5f5ffd5b7f4e487b71000000000000000000000000000000000000000000000000000000005f52604160045260245ffd5b6115858261124b565b810181811067ffffffffffffffff821117156115a4576115a361154f565b5b80604052505050565b5f6115b6611114565b90506115c2828261157c565b919050565b5f67ffffffffffffffff8211156115e1576115e061154f565b5b6115ea8261124b565b9050602081019050919050565b828183375f83830152505050565b5f611617611612846115c7565b6115ad565b9050828152602081018484840111156116335761163261154b565b5b61163e8482856115f7565b509392505050565b5f82601f83011261165a57611659611547565b5b813561166a848260208601611605565b91505092915050565b5f5f604083850312156116895761168861111d565b5b5f83013567ffffffffffffffff8111156116a6576116a5611121565b5b6116b285828601611646565b925050602083013567ffffffffffffffff8111156116d3576116d2611121565b5b6116df85828601611646565b9150509250929050565b5f5f604083850312156116ff576116fe61111d565b5b5f61170c85828601611144565b925050602083013567ffffffffffffffff81111561172d5761172c611121565b5b61173985828601611646565b9150509250929050565b5f5f604083850312156117595761175861111d565b5b5f61176685828601611144565b925050602061177785828601611144565b9150509250929050565b61178a81611177565b82525050565b5f60a0820190506117a35f8301886112de565b6117b060208301876112de565b81810360408301526117c2818661125b565b90506117d16060830185611781565b6117de60808301846112de565b9695505050505050565b7f4e487b71000000000000000000000000000000000000000000000000000000005f52602260045260245ffd5b5f600282049050600182168061182c57607f821691505b60208210810361183f5761183e6117e8565b5b50919050565b7f436f6e74656e74206f7220696d616765207265717569726564000000000000005f82015250565b5f61187960198361122d565b915061188482611845565b602082019050919050565b5f6020820190508181035f8301526118a68161186d565b9050919050565b7f4e487b71000000000000000000000000000000000000000000000000000000005f52601160045260245ffd5b5f6118e482611125565b91507fffffffffffffffffffffffffffffffffffffffffffffffffffffffffffffffff8203611916576119156118ad565b5b600182019050919050565b5f819050815f5260205f209050919050565b5f6020601f8301049050919050565b5f82821b905092915050565b5f6008830261197d7fffffffffffffffffffffffffffffffffffffffffffffffffffffffffffffffff82611942565b6119878683611942565b95508019841693508086168417925050509392505050565b5f819050919050565b5f6119c26119bd6119b884611125565b61199f565b611125565b9050919050565b5f819050919050565b6119db836119a8565b6119ef6119e7826119c9565b84845461194e565b825550505050565b5f5f905090565b611a066119f7565b611a118184846119d2565b505050565b5b81811015611a3457611a295f826119fe565b600181019050611a17565b5050565b601f821115611a7957611a4a81611921565b611a5384611933565b81016020851015611a62578190505b611a76611a6e85611933565b830182611a16565b50505b505050565b5f82821c905092915050565b5f611a995f1984600802611a7e565b1980831691505092915050565b5f611ab18383611a8a565b9150826002028217905092915050565b611aca82611223565b67ffffffffffffffff811115611ae357611ae261154f565b5b611aed8254611815565b611af8828285611a38565b5f60209050601f831160018114611b29575f8415611b17578287015190505b611b218582611aa6565b865550611b88565b601f198416611b3786611921565b5f5b82811015611b5e57848901518255600182019150602085019450602081019050611b39565b86831015611b7b5784890151611b77601f891682611a8a565b8355505b6001600288020188555050505b505050505050565b5f819050919050565b5f611bb3611bae611ba984611b90565b61199f565b611125565b9050919050565b611bc381611b99565b82525050565b5f60a082019050611bdc5f8301886112de565b8181036020830152611bee818761125b565b90508181036040830152611c02818661125b565b9050611c116060830185611bba565b611c1e6080830184611781565b9695505050505050565b7f496e76616c6964204944000000000000000000000000000000000000000000005f82015250565b5f611c5c600a8361122d565b9150611c6782611c28565b602082019050919050565b5f6020820190508181035f830152611c8981611c50565b9050919050565b7f416c7265616479206c696b6564000000000000000000000000000000000000005f82015250565b5f611cc4600d8361122d565b9150611ccf82611c90565b602082019050919050565b5f6020820190508181035f830152611cf181611cb8565b9050919050565b5f606082019050611d0b5f8301866112de565b611d186020830185611781565b611d2560408301846112de565b949350505050565b7f496e76616c696420617574686f720000000000000000000000000000000000005f82015250565b5f611d61600e8361122d565b9150611d6c82611d2d565b602082019050919050565b5f6020820190508181035f830152611d8e81611d55565b9050919050565b5f81905092915050565b50565b5f611dad5f83611d95565b9150611db882611d9f565b5f82019050919050565b5f611dcc82611da2565b9150819050919050565b7f5472616e73666572206661696c656400000000000000000000000000000000005f82015250565b5f611e0a600f8361122d565b9150611e1582611dd6565b602082019050919050565b5f6020820190508181035f830152611e3781611dfe565b9050919050565b5f611e4882611125565b9150611e5383611125565b9250828201905080821115611e6b57611e6a6118ad565b5b92915050565b5f611e8b611e86611e8184611158565b61199f565b611158565b9050919050565b5f611e9c82611e71565b9050919050565b5f611ead82611e92565b9050919050565b611ebd81611ea3565b82525050565b5f606082019050611ed65f8301866112de565b611ee360208301856112de565b611ef06040830184611eb4565b949350505050565b7f496e76616c696420706f737400000000000000000000000000000000000000005f82015250565b5f611f2c600c8361122d565b9150611f3782611ef8565b602082019050919050565b5f6020820190508181035f830152611f5981611f20565b9050919050565b7f456d70747920636f6d6d656e74000000000000000000000000000000000000005f82015250565b5f611f94600d8361122d565b9150611f9f82611f60565b602082019050919050565b5f6020820190508181035f830152611fc181611f88565b9050919050565b7f436f6d6d656e7420746f6f206c6f6e67000000000000000000000000000000005f82015250565b5f611ffc60108361122d565b915061200782611fc8565b602082019050919050565b5f6020820190508181035f83015261202981611ff0565b905091905056fea2646970667358221220150927bb4887bf4a857f4737c47255f68e63b748bdb9c5a12df24143d4f21c9164736f6c634300081e0033","linkReferences":{}},"methodIdentifiers":{"addComment(uint256,string)":"aa7e5683","commentCount()":"45ff20de","commentLiked(uint256,address)":"554124e0","comments(uint256,uint256)":"fc6c776f","createPost(string,string)":"392338f5","getCommentCount(uint256)":"0d4bfb4f","getComments(uint256)":"23edf697","getPostImage(uint256)":"58a61829","likePost(uint256)":"725009d3","liked(uint256,address)":"02c42787","name()":"06fdde03","postCount()":"17906c2e","posts(uint256)":"0b1e7f83","tipPost(uint256)":"74d3c1f8"},"id":16}